:0A0000000C9443000C9400000C94D3
:10000A0000000C9400000C9400000C9400000C9466
:10001A0000000C9400000C9400000C9400000C9456
:10002A0000000C9400000C9400000C9400000C9446
:10003A0000000C9400000C9400000C9400000C9436
:10004A007B000C9400000C9400000C9400000C94AB
:10005A0000000C9400000C9400000C94000010277F
:10006A00E80364000A00010000100001100001000A
:10007A0000000000040003007A000000F894EE2754
:10008A00EFBBF1E0F5BFE5BFF8E1A895A4B7A77FFC
:10009A00A4BFF0936000E09360008DE0A2E0BB276C
:1000AA00ED938A95E9F780E098E0A0E0B1E0ED935E
:1000BA000197E9F7EEE7F0E085919591009761F0F5
:1000CA00A591B59105901590BF01F00105900D928B
:1000DA000197E1F7FB01F0CFE0E0EEBBEFEFEDBFF8
:1000EA00E8E0EEBFC0E0D3E00C94B200EA93FA93E2
:1000FA00EFB7EA931A930A931091C0000091C600D1
:10010A00E12FEC7181F4E32D3394F0E0E050FD4FE0
:10011A000083E8E0E31509F433245394E8E0E51595
:10012A0011F45524F09A09911991E991EFBFF991C7
:10013A00E99118951A935520F1F3E62D6394F0E0AE
:10014A00E050FD4F1081E8E0E61509F46624F894C2
:10015A005A947894E12F19910895E0E8E0936100A8
:10016A00E0E0E0936100E093C000E0E9E093C100C1
:10017A00E6E0E093C200E0E0E093C500E3E3E09349
:10018A00C400EFEFE7B9E8B97894D4DFE093C6008A
:10019A004090C600E2E7E41511F4419813C0E3E782
:1001AA00E41511F440980EC0E0E7E41511F4429802
:1001BA0009C0E3E6E41511F4439804C0E1E6E41546
:1001CA0009F44498E8ECF0E0FA93EA930E94F1000B
:1001DA00EFEFE8B9DACFFFCFE991F991309639F02C
:1001EA0080ED97E00197F1F7A8953197C9F708953F
:00000001FF
