:080000000C949E000C944F01CA
:100008000C946F010C9400000C94E7000C94000011
:100018000C9400000C9400000C9400000C94000058
:100028000C9400000C9400000C9400000C94D60072
:100038000C9400000C9400000C9400000C94000038
:100048000C9400000C9400000C9400000C94000028
:100058000C9400000C9400000C9400000C94000018
:10006800696E000000005350443A202564206B6DEF
:100078002F68004D4F44453A2041434300474150C3
:100088003A20007C7C007C7C7C004449533A202543
:1000980064206D004D4F44453A2043430053455476
:1000A80020544F2041435449564500535441545518
:1000B800533A205041555345005354415455533AEF
:1000C80020414354495645004D4F44453A204E4F30
:1000D800524D414C000080C02D4E414E00000100A1
:1000E8002D4E414E00494E4600000A0000037B0099
:1000F80006000A038500030010038B0004001303A5
:100108008E00090017039C000E002003A5000E00B6
:100118002E03B3000F003C03C1000D004B03D000B9
:1001280006000300680002005A03DE0001006103B4
:10013800E6000000F894EE27EFBBF1E0F5BFE5BF5D
:10014800F8E1A895A4B7A77FA4BFF0936000E09357
:1001580060008DE0A2E0BB27ED938A95E9F780E087
:1001680098E0A0E0B1E0ED930197E9F7E2EFF0E065
:1001780085919591009761F0A591B591059015909D
:10018800BF01F00105900D920197E1F7FB01F0CF57
:10019800E0E0EEBBEFEFEDBFE8E0EEBFC0E0D3E09C
:1001A8000C94C403AA93BA93EA93FA93EFB7EA9329
:1001B800A8E5B3E00E942909E991EFBFF991E99117
:1001C800B991A99118950A921A92FA926A937A9318
:1001D8008A939A93AA93BA93EA93FA93EFB7EA9316
:1001E800A0E03499A1E0A03041F4E9E6E31529F450
:1001F800EDE2F0E09E16AF0608F40BC0B92CCA2C4D
:10020800E3E73E2E0E942F090E9433090E94370916
:1002180034C0A0E03299A1E0A03031F4E3E6E4155F
:1002280019F4E7E7E31509F004C0E3E73E2E8DD1A2
:1002380024C0A0E03299A1E0A03031F4E1E6E41551
:1002480019F4E7E7E31509F00CC0E4E6F0E0DE1680
:10025800EF0618F4E3E73E2E03C0E3E73E2E75D120
:100268000CC00E943D0919F00E94420919F4E3E705
:10027800E31509F002C0E7E73E2EE991EFBFF991D7
:10028800E991B991A9919991899179916991F99097
:100298001990099018950A92EA93FA93EFB7EA939E
:1002A800052C062819F4E3E64E2E04C0EEE64E2E81
:1002B800E9E63E2EE1E0F0E05E0E6F1EE2E0F0E0DF
:1002C800E515F60511F455246624E991EFBFF99177
:1002D800E99109901895EA93FA93EFB7EA93E3E660
:1002E800E41519F4E9E6E31509F402C0E1E64E2E37
:1002F800E1E0F0E07E0E8F1EE4E0F0E0E715F8059F
:1003080021F477248824E3E64E2EE991EFBFF99192
:10031800E9911895299A8BE18A95F1F729980E9415
:100328004709E1E4E0938100E1E2E6BBE6B3E0706F
:10033800E9F70E944709E1E0E0938100E1E2E6BBCA
:10034800E0E0E0935803E0935903E6B3E070E9F77F
:10035800E0915803F0915903AFEFBFEF0E946D0C85
:100368000F01E0918600F0E0DF01E0918700FE2FA9
:10037800E0E0EA0FFB1FE00DF11D662777270E94DA
:10038800120BDF01CB01E9E2FCE369EE73E40E94A2
:100398004D09DE2EEF2E0895A0970E944C04FE0111
:1003A8007096FA93EA93EEE6F0E0FA93EA93ECA1FA
:1003B800FDA10E945209E0E0EA93EA930E943B04FF
:1003C800FE0170960E945B09E1E6E415E1F50E94E2
:1003D8005F09E0E0F3E00E945B090E946509EAE03A
:1003E800F3E00E945B09E1E0F0E0E715F80529F485
:1003F800ECE7EA930E945B0413C0E2E0F0E0E71543
:10040800F80519F4E0E1F3E007C0E3E0F0E0E715F0
:10041800F80531F4E3E1F3E0FA93EA930E947C04EF
:10042800E0E0EA93E3E0EA930E943B04FE01FA93DA
:10043800EA93E2E9F0E0FA93EA93ED2DFE2D0E94AB
:100448005209FE0122C0E3E6E415D9F40E945F09CF
:10045800E7E1F3E00E945B090E946509E9E6E3151C
:1004680019F4E0E2F3E008C0E7E7E31519F4EEE277
:10047800F3E002C0ECE3F3E0FA93EA930E947C0411
:1004880008C00E945F09EBE4F3E0FA93EA930E9444
:100498007C04A2960895A0E03099A1E0A03019F458
:1004A8000E946B0908F00DC0EEE1F0E09E16AF0661
:1004B80018F4E2E0F0E002C0E1E0F0E09E0EAF1ECA
:1004C8003DC00E94420921F4002409140A0408F0DE
:1004D8002DC0E8E7F0E0E915FA0520F4E92DFA2D3A
:1004E800749721C0E0E5F0E0E915FA0528F4E8E79B
:1004F800F0E09E16AF0608F004C0E92DFA2D3A97F1
:1005080012C0E4E1F0E0E915FA0528F4E0E5F0E0CE
:100518009E16AF0608F004C0E92DFA2D359703C0E2
:10052800E92DFA2D31979E2EAF2E08C0002409140C
:100538000A0420F40E9470090E9476090E94330977
:100548000E942F090E9437090895B914CA0419F1A5
:10055800B914CA0480F40E9470090E947C090E94A0
:1005680033090E943D0919F00E94420919F4E7E78E
:100578003E2E11C00FC00E9483090E947C090E9470
:1005880033090E943D0919F00E94420919F4E7E76E
:100598003E2E01C0DACF0895E9E6E31509F47BDFC2
:1005A800E3E7E31511F00C9438032297329929C038
:1005B800E8ECF0E0E919FA093597B0F0E0E0E883F3
:1005C800E983A881B981159774F40E9483090E9470
:1005D80088090E943309B92CCA2CE881F98131961F
:1005E800E883F983EECF0CC00E946B0948F40E949F
:1005F80083090E9488090E943309B92CCA2CF4CFB8
:1006080032C034992AC0A92DBA2D15979D97B0F0FC
:10061800E0E0E883E983A881B981159774F40E9422
:1006280070090E948F090E943309B92CCA2CE881ED
:10063800F9813196E883F983EECF0EC0EDE2F0E060
:10064800E915FA0548F40E9470090E948F090E9472
:100658003309B92CCA2CF2CF06C00E942F090E9478
:1006680033090E9437092296E7E7E31509F413DFF7
:100678000895092C0A2819F4559856982DC0559AAA
:10068800569AE92DFA2D0E945D0CACE3B0E00E9469
:100698006D0CDF01E8ECF0E00E94880CE8BDE92D64
:1006A800FA2D662777270E94140BAAE0B7ED83EA94
:1006B8009BE30E949609A0E0B0E080E092E40E94EB
:1006C8009E0BDF01CB01E0E0F0E060E87FE30E94F1
:1006D8009F090E94DB0AE7BD0895319902C02A9A52
:1006E80001C02A980895A881B981119719F4EEE1FB
:1006F800F0E0CCC0A881B981129719F4E2E3F0E0E8
:10070800C5C0E6E4F0E0C2C0E3E7E31519F0E9E6A6
:10071800E31589F58A927A92E6DF3697DE16EF06B8
:1007280020F4002409140A0408F004C00E94700987
:10073800319611C08A927A92D6DF3696ED15FE056B
:1007480018F40E946B0908F006C0E92DFA2D3196BD
:100758009E2EAF2E31970E943D0919F00E94420942
:1007680021F4E7E73E2EB92CCA2C0E942F090E94DB
:1007780033090E947609E7E7E31509F48CDE08954A
:10078800E0E8E0936100E0E0E0936100E3EAE4BDC3
:10079800E4E0E5BDE0E0E0938000E1E0E0936F0095
:1007A800EAE0E0936900E3E0EDBBECBBE2E0E09354
:1007B8006800EFE1E0936C00E2E0EBBBE0E1EA9374
:1007C800A6D0EFEFE8B95A9A5B9A2098219A229A14
:1007D8002A987894E3E6E41511F4DEDE15C0E1E624
:1007E800E41571F497DDE4E6F0E0ED15FE0530F46C
:1007F800E3E7E31509F4A9DECFDE01C085DF04C015
:10080800EEE6E41509F447DEE5CFFFCFE881E071B5
:1008180011F02E9A01C02E98E881E07211F02F9AFB
:1008280001C02F98E881E07411F05C9A01C05C98CF
:10083800E881E07811F05F9A01C05F9885E08A95B9
:10084800F1F72D9A8DE08A95F1F72D988DE08A952C
:10085800F1F791C0E881EA93D9DFE881E295E8836E
:10086800E881EA93D3DF85E88A95F1F784C0E881C7
:10087800F0E0E65AFC4FE081A981EA0FEA93EADF4B
:10088800E981E0935E03E881E0935F03229608958F
:10089800E2E00E94A409ECE0EA93DCDFE1E00E94D8
:1008A800A409E0E0E0935F03E0935E030895A88164
:1008B800AA3031F0E0916003A0915E03AE1768F0B2
:1008C800E0E0EA93E0915F03EF5FE0935F03EA9370
:1008D800CEDFA881AA3009F44EC0E0915E03EF5F35
:1008E800E0935E032B9AE881EA93B4DF2B9843C028
:1008F8001A93A981BA81ED91A983BA831E2FE0309A
:1009080019F01A93D4DFF5CF188123960895269A03
:10091800279A549A579A259A239A249A2D982B986D
:100928002C98E881E0936003E058E0935C03E88149
:10093800E054E0935D03E4E1F0E0FA93EA930E9467
:100948009C0A0E94AD090E94AD090E94AD09E0E22F
:10095800EA935CDF88EC90E00197F1F7E8E2EA932C
:1009680079DFE4E0EA9376DFE5E8EA9373DFE6E02F
:10097800EA9370DF8DDF219608951A930A93AA816E
:10098800BB8112960E94DC0C309729F1AA81BB81A9
:1009980014960E94DC0C8F01309761F00230E0E081
:1009A8001E07C0F0F80131978F01AA81BB81149608
:1009B800ED93FC93AA81BB8112960E942909319775
:1009C800AC81A083AA81BB810E94DC0CFF2312F0BA
:1009D8000E94290906C0AA81BB81EFEFFFEFED93C2
:1009E800FC9319810881259608952497E0E0E8830F
:1009F800E983E0E8EA83EFE3EB830E94080DEE85E4
:100A0800FF85EF3FAFEFFA0749F4E885F985FA93D8
:100A1800EA93E0EEF0E00E94B609BAC0EF3FAFE714
:100A2800FA0749F4E885F985FA93EA93E1EEF0E0EC
:100A38000E94B609ADC0AB85A73010F0E6E0EB87A1
:100A48001B85E12F1150E03019F00E94BA09F9CF47
:100A5800EC85FD856E857F850E94020D21F430E0CE
:100A68000E94BA0932C03B850E94C90909F010F4F6
:100A78000C9449050E94BA090E94C90928F00E94ED
:100A8800D4090E94D909F8CF0DC00E94C90940F4C1
:100A98000E94D4090E94E5090E94EC093150F5CF63
:100AA8000E94BA09EC85FD856E857F85A0E0B0E0DF
:100AB80080E09FE30E944E0B0E94EC090E94C90946
:100AC80020F00E94D4090E94D90910E0EB85E117B3
:100AD80098F1AC81BD818E819F810E94F1090E94AD
:100AE80096090E94F00C0E947308EC83FD836E83C4
:100AF8007F830E94D4090E944D090E2F0E94F60997
:100B08000E94FD09FF27662777270E94140BAC81F6
:100B1800BD818E819F810E949E0B0E94D4090E94F4
:100B28009F090E94EC09E12F1F5FE03079F60E94CF
:100B3800F609EEE2EC93CACF0E94020A3197AA8521
:100B4800A08330302CF43195A885B985EDE203C037
:100B5800A885B985EBE2EC930E94020A0E94020A7A
:100B68003197BF01A32FEAE00E94830CE05DDB010F
:100B7800EC930E94020A3197BF01A32FEAE00E947A
:100B8800C00CE05DDB01EC93A885B985E0E0EC934F
:100B98000E940F0D60960895EF9761970E94060DC9
:100BA80010E0FE01E85AFF4F0190F081E02DE88740
:100BB800F987FE01EA5AFF4F0190F081E02DEE839C
:100BC800FF83AE81BF81E0E0F0E0ED93FC93DE01AE
:100BD800A45ABF4F0E9429093197E4912E2FE03083
:100BE80011F40C94E507E12FE03039F4253211F4C3
:100BF80011E002C00E94080AE3C1E130C1F42532C5
:100C080019F40E94080ADBC112E0E0E0ED8B00E075
:100C18002D3211F401E0D4C12B3219F4EBE2ED8B43
:100C2800CFC1203219F4E0E2ED8BCAC102C0E23034
:100C380039F450E013E0203311F40068C1C102C058
:100C4800E33091F4203310F02A3308F007C0AAE00B
:100C58005A9F502DE22FE0535E0FB2C140E02E3272
:100C680011F414E0ADC10FC0E43099F4203310F052
:100C78002A3308F008C00062AAE04A9F402DE22FFC
:100C8800E0534E0F9DC12C3619F4026015E098C14F
:100C980004C0E53011F00C94E407E22FE33659F470
:100CA8000E94110A0E94180A0E94110AA481AA939C
:100CB8000E941F0A84C1E53411F0E53609F404C026
:100CC800E63611F00C94B206FE017696EE87FF87A1
:100CD8000E94270A0E94E00C0E942E0A0E94330AF2
:100CE800AD85AA2322F0AD89AB3249F017C00E9426
:100CF800350A0E94A80A0E942E0AEDE2ED8B07FF32
:100D080005C0ED89EA930E941F0A08C0EE85FF8599
:100D18003196EE87FF873197AD89A08305FF46E0BE
:100D2800263661F40E94350A0E94F00C4A93EB893A
:100D3800FC89FA93EA930E948A080BC00E94350A3C
:100D48000E94F00C4A932A93EC89FD89FA93EA935E
:100D58004CDEFE0176960E943A0A1EC0E33739F44B
:100D68000E94330A0E94420A0E943A0A0EC0E037E3
:100D7800C1F40E94330A0E94420AEE87FF87FA9361
:100D8800EA930E9439081E2F08600F77403011F04F
:100D9800411708F001C0142F40E0E0E0EC8B30E090
:100DA8006EC0E43611F0E93611F4046002C0E5378C
:100DB800A1F4EAE0EC8B01FF08C0E0E0FAEC6AE994
:100DC8007BE30E94470A1AE023C0E0E1F7E260E013
:100DD80070E00E94470A15E01BC0E83511F408606E
:100DE80004C0E83711F00C94E307E0E1EC8B01FF55
:100DF80008C0E0E0F0E060E070E10E94470A18E017
:100E080007C0E0E0F0E160E070E00E94470A14E00B
:100E1800403011F00F7701C041E001FF08C00E9487
:100E2800330A0E94270A14960E94E00C0FC002FFA2
:100E380007C00E94330A0E94420A0E94680C06C03A
:100E48000E94330A0E94420A66277727EA87FB87AF
:100E58006C877D8702FF12C0AD85AA2342F40E94E9
:100E6800350A0E94550C0E942E0AEDE2ED8BED89A1
:100E7800E03019F01F5F4F5F01C00B7F342F00FD7A
:100E880014C0151710F4351708F00FC007FF08C075
:100E980002FF04C00B7F2D89115001C020E301C05F
:100EA80020E20E94080A5150ECCF141790F4006118
:100EB80002FF06C00E944C0A09F0515011504150DF
:100EC800E0E3EA930E941F0A503009F05150415064
:100ED800ECCF312FEC89E030B9F43030A1F003FFCA
:100EE80006C0EE85FF852591EE87FF8705C0AE8594
:100EF800BF852D91AE87BF870E94080A503009F040
:100F080051503150EACF51C00E94600A0E949B0C98
:100F18002E2F2A3030F003FF02C0295C01C0295A65
:100F280001C0205D04FD21C0213360F4A889B9897E
:100F38008A899B89A130E0E0BE07E0E08E07E0E007
:100F48009E0709F40BC0431740F4531710F000FF35
:100F580001C010C020E207FF08C020E3006102FFC3
:100F680004C00E944C0A09F051500E94080A5030EF
:100F780009F0515031500E94600A0E94CC0C0E9426
:100F88002E0AEC89A889B9898A899B89FF2766274F
:100F980077270E949B0C0E94470AE889F9896A8989
:100FA8007B890E94020D09F0AFCF00FF08C05030C6
:100FB80031F05150E0E2EA930E941F0AF8CF10E0A6
:100FC80006CEAE81BF810E94DC0C0E940D0DEF960B
:100FD8006F960895FF92F82E26970E94080D0E949A
:100FE800690A309719F4EFEFFFEF25C0DE01169676
:100FF8000E94510C8D010E94690AEE83FF83E0E094
:10100800E887E987DE011A960E94510C0E94DC0CE1
:10101800FA93EA931A930A93E1ECF4E0FA93EA93C9
:10102800FE013A96FA93EA93B7DD9F01AE81BF813C
:10103800E0E0EC93F9010E940F0D2A96FF900895C5
:10104800E991F991A991B991CD0105900D920020EE
:10105800E1F7FC010895A991B991EE27FF276D9159
:10106800662311F03196FBCF0895AA27BB27E99193
:10107800F9910590002011F01196FBCFFD0108951C
:101088007B816A81F981E88177FB770F67FD716061
:10109800972F9E5781F078F0983190F4AA27BB27B4
:1010A800882708948795B795A7959A95D1F7EA2345
:1010B800FB23682305C0E8947727EE27FF276627D8
:1010C8006F77769508F4606877F9A991B991899155
:1010D8009991EA17FB076807790797FB08950E941B
:1010E800700A0E94F00C0E9444080E94EB0C19F44C
:1010F8000E94700A09C0E6F70E94700AA0E0B0E0FA
:1011080080E89FE30E94470B249608952497E0E027
:10111800E883E983EA83EFE3EB831A930A93EB8589
:10112800FC85EF3FAFEFFA0729F4D9D1E8EEF0E0FC
:1011380019D187C0EF3FAFE7FA0729F4D0D1E9EE1C
:10114800F0E010D17EC0AC85AA2352F4E985FA8577
:101158006B857C850E94A80AC7D1CBD1EDE2EC93C0
:10116800A885A73010F0E6E0E8871885E12F115030
:10117800E03031F0C5D131D10E949E0BC6D1F6CFF7
:10118800C9D10E944E0BB0D110E0E0E0F0E060E879
:101198007FE3BBD1BFD10E94310C60F0B1D111D136
:1011A800B4D11F5F173228F09AD1EDEEF0E0DAD013
:1011B80048C0F0CF103021F49CD1E0E3EC931DC07F
:1011C800E12F1150E030C9F09BD107D1ABD00E947C
:1011D800F00C0E94730899D19DD15BD00E2F89D154
:1011E80008D1F0E08DD10E94680C0E94140B0E9477
:1011F8009E0B99D1A0D078D1E3CFE885E030E9F013
:1012080078D1EEE2EC93E885E150E887EF5FA9F04A
:101218008AD1D7D069D1E985FA856B857C850E940A
:10122800DB0A0E2F66D1E5D0F0E07DD10E94680C74
:101238000E94140B80D058D1E6CFAE81BF81E0E088
:10124800EC93198108812D960895ED91FD913196C1
:10125800FE93EE9308950E943D030C947103AA92A5
:101268009A920C94D001E8ECF0E0FA93EA930C948B
:101278009C0AA0E03399A1E0A0300895A0E031993C
:10128800A1E0A0300895E0E0E0938500E0938400B9
:1012980008950E94EC0B0E94DB0A089566277727C1
:1012A8000E94F00C84E00E94EE0728960895FA93B5
:1012B800EA930C947C04E0E0EA93E1E0EA930C946E
:1012C8003B04E0E0EA93E2E0EA930C943B04E8ECA8
:1012D800F0E09E16AF060895E92DFA2D31979E2E5F
:1012E800AF2E0895E8EEF3E0FA93EA930C949C0A83
:1012F800E4EFF1E0FA93EA930E949C0AACCFE1E0B4
:10130800F0E09E0EAF1E0895E0E9F1E0FA93EA934B
:101318000E949C0AA0CFE8E5F2E0FA93EA930E94C3
:101328009C0A99CF0E949E0BA0E0B0E080E09FE36A
:101338000E944E0B08950E94F50C0E94470B0895D9
:10134800EA930E942E04E3E0F0E0FA93EA930C9407
:101358009C0AE0E3EA930E940A0488EC90E0019773
:10136800F1F70895FA93EA930C942408AC81BD81AF
:101378008E819F81E0E0F0E060E271E40E949E0BC4
:10138800EC83FD836E837F830895EC81FD816E81FC
:101398007F81AC85BD858E859F850E94310C08951F
:1013A800AC85BD858E859F850895EDECFCEC6CECD5
:1013B8007DE30E949E0BEC87FD876E877F873F5FEA
:1013C8000895E0E0F0E060E271E40E949E0B089569
:1013D800EC87FD876E877F870895EDECFCEC6CEC5D
:1013E8007DE30895A885B9851196A887B9871197CF
:1013F8000895E02FE05DEC93E02F0895E885F985E6
:101408003196E887F98708952A93EF81F885FA934A
:10141800EA93EB85FC8509950895FE01E65AFF4F8E
:101428000190F081E02D08953497DE01A65ABF4F50
:10143800ED93FC930895EF81F885FA93EA93EB8591
:10144800FC8509950895DE01A65ABF4F0D90BC9101
:10145800A02D0895EA87FB876C877D870895DDDFD7
:10146800E3CFEA85FB856C857D850895EE87FF8748
:10147800FA93EA930E942F081E2F0895E4DF14962A
:101488000E94DC0C0895E88BF98B6A8B7B8B08959E
:101498000B7FED89EA93FE01E95AFF4F0190F08135
:1014A800E02DFA93EA93FE01E55AFF4F0190F0818F
:1014B800E02D099550300895E889F9896A897B8972
:1014C800AA85BB858C859D850895DE011C960E94A2
:1014D800510C0E94DC0C08950E94E60C0895EE81E0
:1014E800FF81FA93EA930895E987FA876B877C87E7
:1014F8000895AE81BF811196AE83BF831197089579
:10150800AA81BB818C819D810895EA83FB836C83CA
:101518007D830895EA81FB816C817D81A985BA85E7
:101528008B859C850895A985BA858B859C850895AA
:10153800E991F991309639F080ED97E00197F1F74C
:10154800A8953197C9F7089530976040704009F021
:1015580070580895552342F4503811F4E0FF04C040
:101568003196691F791F6BF050E8572711F45F9384
:10157800CFC05F3F31F0660F000C57956795752F08
:1015880008955F9300200AF0CFC0C8C050E8192E14
:101598001522880F991F9527550F879550E8072E14
:1015A8000522660F771F7527550F6795089568946C
:1015B80001C0E8945F93F2DF703818F07F3F08F4B9
:1015C800A7C056E1571BAAF4519558300EF459306C
:1015D80030F0EFEFFFEF6FEF7FE777F91AC077276B
:1015E8005523B9F0EE0FFF1F661F771F5A95D1F7E5
:1015F80010C07727583028F0EF2FF62F672F585054
:10160800F9CF552331F076956795F795E7955A9573
:10161800D1F700200AF445D15F910895689401C07C
:10162800E894309760407040B1F0002426F07723AA
:1016380012F4009436D1172E7EE1112032F07A95FB
:10164800EE0FFF1F661F111CF9CFEF2FF62F612D2C
:101658005F938ADF5F9108954F93AF01FD01DA012F
:10166800AB01BC01CA01402D012C142E4F910895E5
:10167800EA0FFB1F681F0895E095F0956095EF5FEE
:10168800FF4F6F4F08955F9381DF903871F150E8F5
:10169800152604C05F937ADF903839F1703821F14C
:1016A800572F591B2BF112F4D7DFFACF583118F006
:1016B800AA27BB278827583028F0AB2FB82F8827B0
:1016C8005850F9CF552329F08695B795A7955A957F
:1016D800D9F7502D512572F0CBDF38F46795F7957F
:1016E800E795739513F420C0B7DF3EDF5F91089547
:1016F800D8F7FBCFEA1BFB0B680B51F010F40094F2
:10170800BBDF662392F3EE0FFF1F661F7A95CBF7B8
:10171800EE27FF27662777275F910895EFEFFFEF02
:101728006FE77FEF5F910895EFEFFFEF6FE77FE7D8
:101738005F9108955F932ADF703851F3903841F331
:1017480001240894791F23F41CF300203AF3ECCF0A
:101758000F921F932F933F934F9311272227992777
:10176800689FA0018F9F302D410D591F6B9F300D31
:10177800411D591F8E9F27D0BF9F25D06A9F23D018
:10178800BE9F1DD0AF9F1BD0AE9F110D291F391FC3
:10179800491F591FE32FF42F652F522F4F913F9167
:1017A8002F911F910F9066232AF0550FEE1FFF1FF0
:1017B800661F02C073954BF2CDDE5F910895100D40
:1017C800211D391F02C0200D311D491F591F0895C1
:1017D8005F93DCDE703821F411200AF49FCFA4CF88
:1017E800903809F495CF01240894970B1BF4D4F38F
:1017F8000020F3CF792F1F932F933F934F931124FA
:101808001127222733274427552790E2AE17BF0711
:101818008607410730F0AE1BBF0B860B410B0894BF
:1018280001C08894551F221F331F111CAA1FBB1FFC
:10183800881F441F9A9551F7F901612D4F913F91E7
:101848002F911F91662332F0550FEE1FFF1F661F61
:101858007A9543F27FDE5F91089599239AF0772372
:1018680042F0971748F029F4AE17BF07860720F013
:1018780031F0989488940895989408940895189449
:10188800889408957723C2F7971798F3A9F7EA176A
:10189800FB07680788F399F3ECCF0024AF0DB01D60
:1018A8000895F09560957095E195FF4F6F4F7F4FC4
:1018B8000895EE0FFF1FEE0FFF1F0895FE2FFF0F75
:1018C800FF0B6F2F7F2F08956F2F660F660B762FF4
:1018D8000895FA9FF02DEB9FF00DEA9FE02DF10D92
:1018E8000895002498E0AA0F001C0E1A10F40E0E9A
:1018F80001C0A1609A95B9F7EA2FA02D08954CD0A0
:10190800F0DF0EF4E19508950024112490E1AA0F68
:10191800BB1F001C111C0E1A1F0A18F40E0E1F1EE6
:1019280001C0A1609A9599F7FD01D00108953F93F0
:101938004F935F93002411244427552730E2AA0FC0
:10194800BB1F881F991F001C111C441F551F0E1A0E
:101958001F0A460B570B28F40E0E1F1E461F571F53
:1019680001C0A1603A9559F7FD01BC01D001CA0137
:101978005F914F913F910895E894A7FF02C0A19508
:101988006894E7FDE195ADDFEA2F0EF4E19508953F
:10199800CEDFFD01BC010895E894E7FF02C0E195A0
:1019A8006894A7FF04C0A19500F8039400FA08956D
:1019B800ED91FC9111970895ED91FD916D917C91B8
:1019C80013970895E881F9816A817B810895E883F6
:1019D800F9836A837B8308957A936A93FA93EA93E7
:1019E8000895182E862F612D192E972F712D1B2ED5
:1019F800BF2FF12D1A2EAE2FE12D0895309760409C
:101A0800704008955A934A933A932A931A930A93E3
:101A180008955D814C813B812A811981088108954F
:00000001FF
