:0A0000000C94A2000C9452010C9421
:10000A0072010C9400000C94E3000C9400000C9410
:10001A0000000C9400000C9400000C9400000C9456
:10002A0000000C9400000C9400000C94DA000C946C
:10003A0000000C9400000C9400000C9400000C9436
:10004A0000000C9400000C9400000C9400000C9426
:10005A0000000C9400000C9400000C940000696EDF
:10006A00000000000000000000005350443A202520
:10007A0064206B6D2F68004D4F44453A204143433D
:10008A00004741503A20007C7C007C7C7C0044493B
:10009A00533A2025302E3266206D004D4F44453AA2
:1000AA002043430053455420544F2041435449565A
:1000BA0045005354415455533A2050415553450035
:1000CA005354415455533A20414354495645004DDF
:1000DA004F44453A204E4F524D414C0080C02D4E60
:1000EA00414E000001002D4E414E00494E4600008F
:1000FA000A000003810006000A038B0003001003B4
:10010A00910004001303940009001703A5000E00D0
:10011A002003AE000E002E03BC000F003C03CA00F1
:10012A000D004B03D9000C000300680002005C03B9
:10013A00E60001006303EE000000F894EE27EFBB2F
:10014A00F1E0F5BFE5BFF8E1A895A4B7A77FA4BF82
:10015A00F0936000E09360008DE0A2E0BB27ED938E
:10016A008A95E9F780E098E0A0E0B1E0ED93019785
:10017A00E9F7EAEFF0E085919591009761F0A59192
:10018A00B59105901590BF01F00105900D92019768
:10019A00E1F7FB01F0CFE0E0EEBBEFEFEDBFE8E007
:1001AA00EEBFC0E0D3E00C94BB03EA93FA93EFB737
:1001BA00EA93E1E0F0E0DE0EEF1EA5C00A921A9281
:1001CA00FA926A937A938A939A93AA93BA93EA933E
:1001DA00FA93EFB7EA93A0E03499A1E0A03041F492
:1001EA00E9E6E31529F4EDE2F0E09E16AF0608F41D
:1001FA0007C0E3E73E2E0E942D090E9435093FC041
:10020A00A0E03299A1E0A03031F4E7E7E31519F450
:10021A00E3E6E41509F025C0E3E73E2EB914CA0463
:10022A00F9F0B914CA0470F40E943B090E9441090A
:10023A000E94480919F00E944D0919F4E7E73E2E79
:10024A000FC00DC00E9452090E9441090E9448092C
:10025A0019F00E944D0919F4E7E73E2E01C0DECFDE
:10026A000EC0A0E03299A1E0A03031F4E7E7E3152F
:10027A0019F4E1E6E41509F002C0E3E73E2EE9913C
:10028A00EFBFF991E991B991A991999189917991E0
:10029A006991F9901990099018950A92EA93FA933C
:1002AA00EFB7EA93052C062819F4E3E64E2E04C0AC
:1002BA00EEE64E2EE9E63E2EE1E0F0E05E0E6F1E1F
:1002CA00E2E0F0E0E515F60511F455246624E9911B
:1002DA00EFBFF991E99109901895EA93FA93EFB76C
:1002EA00EA93E3E6E41511F4E1E64E2EE1E0F0E0EC
:1002FA007E0E8F1EE4E0F0E0E715F80521F477247E
:10030A008824E3E64E2EE991EFBFF991E991189519
:10031A001A930A93299A8BE18A95F1F729980E94F0
:10032A005709E1E4E0938100E1E2E6BBE6B3E0705D
:10033A00E9F70E945709E1E0E0938100E1E2E6BBB8
:10034A00DD24EE24E6B3E070E9F7E0918600F0E000
:10035A00DF01E0918700FE2FE0E0EA0FFB1FBF01FB
:10036A00ED2DFE2DAFEFBFEF0E94660CE60FF71FD3
:10037A008F01F801662777270E940D0BA0E0B0E0F5
:10038A0080E89FE30E94970BDF01CB01E9E2FCE3DF
:10039A0069EE73E40E94E50BE0935803F093590366
:1003AA0060935A0370935B03099119910895A0977A
:1003BA000E944D04FE017096FA93EA93E4E7F0E096
:1003CA00FA93EA93ECA1FDA1662777270E945D09BB
:1003DA00E0E0EA93EA930E943C04FE0170960E94D0
:1003EA006409E1E6E41511F00C943D020E946809E3
:1003FA00E0E0F3E00E9464090E946E09EAE0F3E09B
:10040A000E946409E1E0F0E0E715F80529F4ECE759
:10041A00EA930E945C0413C0E2E0F0E0E715F805F5
:10042A0019F4E0E1F3E007C0E3E0F0E0E715F805CE
:10043A0031F4E3E1F3E0FA93EA930E947D04E0E009
:10044A00EA93E3E0EA930E943C04FE01FA93EA93FA
:10045A00E8E9F0E0FA93EA93E0915803F09159033E
:10046A0060915A0370915B030E945D09FE0122C0EC
:10047A00E3E6E415D9F40E946809E7E1F3E00E9493
:10048A0064090E946E09E9E6E31519F4E0E2F3E073
:10049A0008C0E7E7E31519F4EEE2F3E002C0ECE383
:1004AA00F3E0FA93EA930E947D0408C00E94680967
:1004BA00EBE4F3E0FA93EA930E947D04A29608958E
:1004CA00A0E03099A1E0A03019F40E94740908F064
:1004DA000DC0EEE1F0E09E16AF0618F4E2E0F0E09F
:1004EA0002C0E1E0F0E09E0EAF1E3FC00E944D093F
:1004FA0021F4002409140A0408F02DC0E8E7F0E00A
:10050A00E915FA0520F4E92DFA2D749721C0E0E5E2
:10051A00F0E0E915FA0528F4E8E7F0E09E16AF06E0
:10052A0008F004C0E92DFA2D3A9712C0E4E1F0E090
:10053A00E915FA0528F4E0E5F0E09E16AF0608F0A2
:10054A0004C0E92DFA2D359703C0E92DFA2D31970C
:10055A009E2EAF2E0AC0002409140A0430F40E9409
:10056A003B09E8EEF3E00E947909AA929A921FDF0A
:10057A0078D0ABD00E9435090895E9E6E31509F46D
:10058A009FDFE3E7E31511F00C94310322973299C8
:10059A0029C0E8ECF0E0E919FA093597B0F0E0E093
:1005AA00E883E983A881B981159774F40E945209F6
:1005BA00E0E9F1E00E9479090E942D09E881F981B8
:1005CA003196E883F983EECF0CC00E94740948F48F
:1005DA000E945209E0E9F1E00E9479090E942D097E
:1005EA00F4CF39C034992AC0A92DBA2D15979D97F1
:1005FA00B0F0E0E0E883E983A881B981159774F443
:10060A000E943B09E8E5F2E00E9479090E942D095F
:10061A00E881F9813196E883F983EECF0EC0EDE2E5
:10062A00F0E0E915FA0548F40E943B09E8E5F2E032
:10063A000E9479090E942D09F2CF0DC00E94480933
:10064A0019F00E944D0919F4E7E73E2E04C00E94F2
:10065A002D090E9435092296E7E7E31509F430DFF0
:10066A000895092C0A2819F4559856982DC0559AB8
:10067A00569AE92DFA2D0E94560CACE3B0E00E947E
:10068A00660CDF01E8ECF0E00E94810CE8BDE92D80
:10069A00FA2D662777270E940D0BAAE0B7ED83EAA9
:1006AA009BE30E947D09A0E0B0E080E092E40E9412
:1006BA00970BDF01CB01E0E0F0E060E87FE30E9406
:1006CA0086090E94D40AE7BD0895319902C02A9A80
:1006DA0001C02A980895A881B981119719F4EEE109
:1006EA00F0E0D4C0A881B981129719F4E2E3F0E0EE
:1006FA00CDC0E6E4F0E0CAC0E3E7E31519F0E9E6A5
:10070A00E31579F58A927A92E6DF36970E948B0989
:10071A0020F4002409140A0408F003C00E943B09CB
:10072A0010C08A927A92D7DF36960E948B0909F016
:10073A0010F40C94A3030E94740908F002C00E94EA
:10074A0052090E94480919F00E944D0921F4E7E76D
:10075A003E2EB92CCA2C0E942D09E4EFF1E00E942A
:10076A007909E7E7E31509F4ABDE0895E0E8E093D9
:10077A006100E0E0E0936100E3EAE4BDE4E0E5BDA6
:10078A00E0E0E0938000E1E0E0936F00E5E0E093D1
:10079A00B100EAE0E0936900E3E0EDBBECBBE2E024
:1007AA00E0936800EFE1E0936C00E2E0EBBBE0E18C
:1007BA00EA93ADD0EFEFE8B95A9A5B9A2098219A5A
:1007CA00229A2A987894E3E6E41509F4D6DEE1E65B
:1007DA00E415B1F49DDDA0915803B09159038091BD
:1007EA005A0390915B03E0E0F0E068EC72E40E9447
:1007FA002A0C09F010F40C940404BFDE01C07CDF5B
:10080A00EEE6E41509F45CDEDECFFFCFE881E071A5
:10081A0011F02E9A01C02E98E881E07211F02F9AF9
:10082A0001C02F98E881E07411F05C9A01C05C98CD
:10083A00E881E07811F05F9A01C05F9885E08A95B7
:10084A00F1F72D9A8DE08A95F1F72D988DE08A952A
:10085A00F1F78FC0E881EA93D9DFE881E295E8836E
:10086A00E881EA93D3DF85E88A95F1F782C0E881C7
:10087A00F0E0E45AFC4FE081A981EA0FEA93EADF4B
:10088A00E981E0936003E881E09361032296089589
:10089A00E2E00E949A09ECE0EA93DCDFE1E00E94E0
:1008AA009A09E0E0E0936103E09360030895A88168
:1008BA00AA3031F0E0916203A0916003AE1768F0AC
:1008CA00E0E0EA93E0916103EF5FE0936103EA936A
:1008DA00CEDFA881AA3009F44CC0E0916003EF5F33
:1008EA00E09360032B9AE881EA93B4DF2B9841C026
:1008FA001A93A981BA81ED91A983BA831E2FE03098
:10090A0019F01A93D4DFF5CF188123960895269A01
:10091A00279A549A579A259A239A249A2D982B986B
:10092A002C98E881E0936203E058E0935E03E88143
:10093A00E054E0935F03E4E1F0E00E9479090E9449
:10094A00A0090E94A0090E94A009E0E2EA935EDFE2
:10095A0088EC90E00197F1F7E8E2EA937BDFE4E0C4
:10096A00EA9378DFE5E8EA9375DFE6E0EA9372DF77
:10097A008FDF219608951A930A93AA81BB81129652
:10098A000E94D50C309729F1AA81BB8114960E9446
:10099A00D50C8F01309761F00230E0E01E07C0F0FD
:1009AA00F80131978F01AA81BB811496ED93FC93CC
:1009BA00AA81BB8112960E94A9093197AC81A083B2
:1009CA00AA81BB810E94D50CFF2312F00E94A909BB
:1009DA0006C0AA81BB81EFEFFFEFED93FC9319816B
:1009EA000881259608952497E0E0E883E983E0E802
:1009FA00EA83EFE3EB830E94010DEE85FF85EF3F6B
:100A0A00AFEFFA0749F4E885F985FA93EA93E8EE35
:100A1A00F0E00E94AF09BCC0EF3FAFE7FA0749F424
:100A2A00E885F985FA93EA93E9EEF0E00E94AF09C6
:100A3A00AFC0AB85A73010F0E6E0EB871B85E12F4E
:100A4A001150E03019F00E94B309F9CFEC85FD8509
:100A5A006E857F850E94FB0C21F430E00E94B30969
:100A6A0032C03B850E94C20909F010F40C94480573
:100A7A000E94B3090E94C20928F00E94CD090E946F
:100A8A00D209F8CF0DC00E94C20940F40E94CD09D4
:100A9A000E94DE090E94E5093150F5CF0E94B30990
:100AAA00EC85FD856E857F85A0E0B0E080E09FE360
:100ABA000E94470B0E94E5090E94C20920F00E9489
:100ACA00CD090E94D20910E0EB85E117A8F1AC81AB
:100ADA00BD818E819F810E94EA090E947D090E9440
:100AEA00E90C0E947408EC83FD836E837F830E9465
:100AFA00CD090E94E50B0E94D40A0E2F0E94EF092D
:100B0A000E94F609FF27662777270E940D0BAC8102
:100B1A00BD818E819F810E94970B0E94CD090E9400
:100B2A0086090E94E509E12F1F5FE03069F60E94FD
:100B3A00EF09EEE2EC93C8CF0E94FB093197AA8530
:100B4A00A08330302CF43195A885B985EDE203C035
:100B5A00A885B985EBE2EC930E94FB090E94FB0988
:100B6A003197BF01A32FEAE00E947C0CE05DDB0114
:100B7A00EC930E94FB093197BF01A32FEAE00E9480
:100B8A00B90CE05DDB01EC93A885B985E0E0EC9354
:100B9A000E94080D60960895EF9761970E94FF0CD6
:100BAA0010E0FE01E85AFF4F0190F081E02DE8873E
:100BBA00F987FE01EA5AFF4F0190F081E02DEE839A
:100BCA00FF83AE81BF81E0E0F0E0ED93FC93DE01AC
:100BDA00A45ABF4F0E94A9093197E4912E2FE03001
:100BEA0011F40C94E607E12FE03039F4253211F4C0
:100BFA0011E002C00E94010AE3C1E130C1F42532CA
:100C0A0019F40E94010ADBC112E0E0E0ED8B00E07A
:100C1A002D3211F401E0D4C12B3219F4EBE2ED8B41
:100C2A00CFC1203219F4E0E2ED8BCAC102C0E23032
:100C3A0039F450E013E0203311F40068C1C102C056
:100C4A00E33091F4203310F02A3308F007C0AAE009
:100C5A005A9F502DE22FE0535E0FB2C140E02E3270
:100C6A0011F414E0ADC10FC0E43099F4203310F050
:100C7A002A3308F008C00062AAE04A9F402DE22FFA
:100C8A00E0534E0F9DC12C3619F4026015E098C14D
:100C9A0004C0E53011F00C94E507E22FE33659F46D
:100CAA000E940A0A0E94110A0E940A0AA481AA93AF
:100CBA000E94180A84C1E53411F0E53609F404C02B
:100CCA00E63611F00C94B306FE017696EE87FF879E
:100CDA000E94200A0E94D90C0E94270A0E942C0A0C
:100CEA00AD85AA2322F0AD89AB3249F017C00E9424
:100CFA002E0A0E94A10A0E94270AEDE2ED8B07FF45
:100D0A0005C0ED89EA930E94180A08C0EE85FF859E
:100D1A003196EE87FF873197AD89A08305FF46E0BC
:100D2A00263661F40E942E0A0E94E90C4A93EB8946
:100D3A00FC89FA93EA930E948B080BC00E942E0A40
:100D4A000E94E90C4A932A93EC89FD89FA93EA9363
:100D5A004ADEFE0176960E94330A1EC0E33739F452
:100D6A000E942C0A0E943B0A0E94330A0EC0E037F6
:100D7A00C1F40E942C0A0E943B0AEE87FF87FA936D
:100D8A00EA930E943A081E2F08600F77403011F04C
:100D9A00411708F001C0142F40E0E0E0EC8B30E08E
:100DAA006EC0E43611F0E93611F4046002C0E5378A
:100DBA00A1F4EAE0EC8B01FF08C0E0E0FAEC6AE992
:100DCA007BE30E94400A1AE023C0E0E1F7E260E018
:100DDA0070E00E94400A15E01BC0E83511F4086073
:100DEA0004C0E83711F00C94E407E0E1EC8B01FF52
:100DFA0008C0E0E0F0E060E070E10E94400A18E01C
:100E0A0007C0E0E0F0E160E070E00E94400A14E010
:100E1A00403011F00F7701C041E001FF08C00E9485
:100E2A002C0A0E94200A14960E94D90C0FC002FFB5
:100E3A0007C00E942C0A0E943B0A0E94610C06C04D
:100E4A000E942C0A0E943B0A66277727EA87FB87BB
:100E5A006C877D8702FF12C0AD85AA2342F40E94E7
:100E6A002E0A0E944E0C0E94270AEDE2ED8BED89B4
:100E7A00E03019F01F5F4F5F01C00B7F342F00FD78
:100E8A0014C0151710F4351708F00FC007FF08C073
:100E9A0002FF04C00B7F2D89115001C020E301C05D
:100EAA0020E20E94010A5150ECCF141790F400611D
:100EBA0002FF06C00E94450A09F0515011504150E4
:100ECA00E0E3EA930E94180A503009F05150415069
:100EDA00ECCF312FEC89E030B9F43030A1F003FFC8
:100EEA0006C0EE85FF852591EE87FF8705C0AE8592
:100EFA00BF852D91AE87BF870E94010A503009F045
:100F0A0051503150EACF51C00E94590A0E94940CA4
:100F1A002E2F2A3030F003FF02C0295C01C0295A63
:100F2A0001C0205D04FD21C0213360F4A889B9897C
:100F3A008A899B89A130E0E0BE07E0E08E07E0E005
:100F4A009E0709F40BC0431740F4531710F000FF33
:100F5A0001C010C020E207FF08C020E3006102FFC1
:100F6A0004C00E94450A09F051500E94010A5030FB
:100F7A0009F0515031500E94590A0E94C50C0E9432
:100F8A00270AEC89A889B9898A899B89FF27662754
:100F9A0077270E94940C0E94400AE889F9896A8995
:100FAA007B890E94FB0C09F0AFCF00FF08C05030CC
:100FBA0031F05150E0E2EA930E94180AF8CF10E0AB
:100FCA0006CEAE81BF810E94D50C0E94060DEF9617
:100FDA006F960895FF92F82E26970E94010D0E949F
:100FEA00620A309719F4EFEFFFEF25C0DE0116967B
:100FFA000E944A0C8D010E94620AEE83FF83E0E0A0
:10100A00E887E987DE011A960E944A0C0E94D50CED
:10101A00FA93EA931A930A93E0ECF4E0FA93EA93C8
:10102A00FE013A96FA93EA93B7DD9F01AE81BF813A
:10103A00E0E0EC93F9010E94080D2A96FF900895CA
:10104A00E991F991A991B991CD0105900D920020EC
:10105A00E1F7FC010895A991B991EE27FF276D9157
:10106A00662311F03196FBCF0895AA27BB27E99191
:10107A00F9910590002011F01196FBCFFD0108951A
:10108A007B816A81F981E88177FB770F67FD71605F
:10109A00972F9E5781F078F0983190F4AA27BB27B2
:1010AA00882708948795B795A7959A95D1F7EA2343
:1010BA00FB23682305C0E8947727EE27FF276627D6
:1010CA006F77769508F4606877F9A991B991899153
:1010DA009991EA17FB076807790797FB08950E9419
:1010EA00690A0E94E90C0E9445080E94E40C19F45E
:1010FA000E94690A09C0E6F70E94690AA0E0B0E006
:10110A0080E89FE30E94400B249608952497E0E02C
:10111A00E883E983EA83EFE3EB831A930A93EB8587
:10112A00FC85EF3FAFEFFA0729F4D1D1E0EFF0E009
:10113A0011D18AC0EF3FAFE7FA0729F4C8D1E1EF2E
:10114A00F0E008D181C0AC85AA2352F4E985FA857A
:10115A006B857C850E94A10ABFD1C3D1EDE2EC93D5
:10116A00A885A73010F0E6E0E8871885E12F11502E
:10117A00E03031F0BDD129D10E94970BBED1F6CF14
:10118A00C1D10E94470BA8D110E0E0E0F0E060E88E
:10119A007FE3B3D1B7D10E942A0C60F0A9D109D15B
:1011AA00ACD11F5F173228F092D1E5EFF0E0D2D030
:1011BA004BC0F0CF103021F494D1E0E3EC9320C07F
:1011CA00E12F1150E030E1F093D1FFD091D00E948D
:1011DA00E90C0E94740891D195D10E94E50B0E94F6
:1011EA00D40A0E2F7ED1FDD0F0E082D10E94610C8C
:1011FA000E940D0B0E94970B8ED183D06DD1E0CF48
:10120A00E885E030E9F06DD1EEE2EC93E885E15053
:10121A00E887EF5FA9F07FD1CCD05ED1E985FA8566
:10122A006B857C850E94D40A0E2F5BD1DAD0F0E060
:10123A0072D10E94610C0E940D0B63D04DD1E6CF92
:10124A00AE81BF81E0E0EC93198108812D96089563
:10125A000E9436030E946A03AA929A920C94DC01B5
:10126A00E8ECF0E0FA93EA930C94950AE92DFA2D4A
:10127A0031979E2EAF2E0895E4EFF1E0FA93EA93A8
:10128A000E94950AE5CFA0E03399A1E0A030089525
:10129A00A0E03199A1E0A0300895E1E0F0E09E0ECF
:1012AA00AF1E0895E0E0E0938500E093840008957E
:1012BA000E94E90C84E00E94EF0728960895FA93A9
:1012CA00EA930C947D04E0E0EA93E1E0EA930C945B
:1012DA003C04E0E0EA93E2E0EA930C943C04E8EC94
:1012EA00F0E09E16AF060895FA93EA930C94950AD5
:1012FA000E94970BA0E0B0E080E09FE30E94470BBA
:10130A0008950E94EE0C0E94400B0895A091580384
:10131A00B091590380915A0390915B030E94610C2A
:10132A000E940D0B0E942A0C0895EA930E942F0432
:10133A00E3E0F0E0D9CFE0E3EA930E940B0488EC03
:10134A0090E00197F1F70895ED91FD913196FE93A2
:10135A00EE930895FA93EA930C942508AC81BD8123
:10136A008E819F81E0E0F0E060E271E40E94970BD9
:10137A00EC83FD836E837F830895EC81FD816E810A
:10138A007F81AC85BD858E859F850E942A0C089534
:10139A00AC85BD858E859F850895EDECFCEC6CECE3
:1013AA007DE30E94970BEC87FD876E877F873F5FFF
:1013BA000895E0E0F0E060E271E40E94970B08957E
:1013CA00EC87FD876E877F870895EDECFCEC6CEC6B
:1013DA007DE30895A885B9851196A887B9871197DD
:1013EA000895E02FE05DEC93E02F0895E885F985F4
:1013FA003196E887F98708952A93EF81F885FA9359
:10140A00EA93EB85FC8509950895FE01E65AFF4F9C
:10141A000190F081E02D08953497DE01A65ABF4F5E
:10142A00ED93FC930895EF81F885FA93EA93EB859F
:10143A00FC8509950895DE01A65ABF4F0D90BC910F
:10144A00A02D0895EA87FB876C877D870895DDDFE5
:10145A00E3CFEA85FB856C857D850895EE87FF8756
:10146A00FA93EA930E9430081E2F0895E4DF149637
:10147A000E94D50C0895E88BF98B6A8B7B8B0895B3
:10148A000B7FED89EA93FE01E95AFF4F0190F08143
:10149A00E02DFA93EA93FE01E55AFF4F0190F0819D
:1014AA00E02D099550300895E889F9896A897B8980
:1014BA00AA85BB858C859D850895DE011C960E94B0
:1014CA004A0C0E94D50C08950E94DF0C0895EE8103
:1014DA00FF81FA93EA930895E987FA876B877C87F5
:1014EA000895AE81BF811196AE83BF831197089587
:1014FA00AA81BB818C819D810895EA83FB836C83D9
:10150A007D830895EA81FB816C817D81A985BA85F5
:10151A008B859C850895A985BA858B859C850895B8
:10152A00E991F991309639F080ED97E00197F1F75A
:10153A00A8953197C9F7089530976040704009F02F
:10154A0070580895552342F4503811F4E0FF04C04E
:10155A003196691F791F6BF050E8572711F45F9392
:10156A00CFC05F3F31F0660F000C57956795752F16
:10157A0008955F9300200AF0CFC0C8C050E8192E22
:10158A001522880F991F9527550F879550E8072E22
:10159A000522660F771F7527550F6795089568947A
:1015AA0001C0E8945F93F2DF703818F07F3F08F4C7
:1015BA00A7C056E1571BAAF4519558300EF459307A
:1015CA0030F0EFEFFFEF6FEF7FE777F91AC0772779
:1015DA005523B9F0EE0FFF1F661F771F5A95D1F7F3
:1015EA0010C07727583028F0EF2FF62F672F585062
:1015FA00F9CF552331F076956795F795E7955A9582
:10160A00D1F700200AF445D15F910895689401C08A
:10161A00E894309760407040B1F0002426F07723B8
:10162A0012F4009436D1172E7EE1112032F07A9509
:10163A00EE0FFF1F661F111CF9CFEF2FF62F612D3A
:10164A005F938ADF5F9108954F93AF01FD01DA013D
:10165A00AB01BC01CA01402D012C142E4F910895F3
:10166A00EA0FFB1F681F0895E095F0956095EF5FFC
:10167A00FF4F6F4F08955F9381DF903871F150E803
:10168A00152604C05F937ADF903839F1703821F15A
:10169A00572F591B2BF112F4D7DFFACF583118F014
:1016AA00AA27BB278827583028F0AB2FB82F8827BE
:1016BA005850F9CF552329F08695B795A7955A958D
:1016CA00D9F7502D512572F0CBDF38F46795F7958D
:1016DA00E795739513F420C0B7DF3EDF5F91089555
:1016EA00D8F7FBCFEA1BFB0B680B51F010F4009400
:1016FA00BBDF662392F3EE0FFF1F661F7A95CBF7C7
:10170A00EE27FF27662777275F910895EFEFFFEF10
:10171A006FE77FEF5F910895EFEFFFEF6FE77FE7E6
:10172A005F9108955F932ADF703851F3903841F33F
:10173A0001240894791F23F41CF300203AF3ECCF18
:10174A000F921F932F933F934F9311272227992785
:10175A00689FA0018F9F302D410D591F6B9F300D3F
:10176A00411D591F8E9F27D0BF9F25D06A9F23D026
:10177A00BE9F1DD0AF9F1BD0AE9F110D291F391FD1
:10178A00491F591FE32FF42F652F522F4F913F9175
:10179A002F911F910F9066232AF0550FEE1FFF1FFE
:1017AA00661F02C073954BF2CDDE5F910895100D4E
:1017BA00211D391F02C0200D311D491F591F0895CF
:1017CA005F93DCDE703821F411200AF49FCFA4CF96
:1017DA00903809F495CF01240894970B1BF4D4F39D
:1017EA000020F3CF792F1F932F933F934F93112408
:1017FA001127222733274427552790E2AE17BF0720
:10180A008607410730F0AE1BBF0B860B410B0894CD
:10181A0001C08894551F221F331F111CAA1FBB1F0A
:10182A00881F441F9A9551F7F901612D4F913F91F5
:10183A002F911F91662332F0550FEE1FFF1F661F6F
:10184A007A9543F27FDE5F91089599239AF0772380
:10185A0042F0971748F029F4AE17BF07860720F021
:10186A0031F0989488940895989408940895189457
:10187A00889408957723C2F7971798F3A9F7EA1778
:10188A00FB07680788F399F3ECCF0024AF0DB01D6E
:10189A000895F09560957095E195FF4F6F4F7F4FD2
:1018AA000895EE0FFF1FEE0FFF1F0895FE2FFF0F83
:1018BA00FF0B6F2F7F2F08956F2F660F660B762F02
:1018CA000895FA9FF02DEB9FF00DEA9FE02DF10DA0
:1018DA000895002498E0AA0F001C0E1A10F40E0EA8
:1018EA0001C0A1609A95B9F7EA2FA02D08954CD0AE
:1018FA00F0DF0EF4E19508950024112490E1AA0F77
:10190A00BB1F001C111C0E1A1F0A18F40E0E1F1EF4
:10191A0001C0A1609A9599F7FD01D00108953F93FE
:10192A004F935F93002411244427552730E2AA0FCE
:10193A00BB1F881F991F001C111C441F551F0E1A1C
:10194A001F0A460B570B28F40E0E1F1E461F571F61
:10195A0001C0A1603A9559F7FD01BC01D001CA0145
:10196A005F914F913F910895E894A7FF02C0A19516
:10197A006894E7FDE195ADDFEA2F0EF4E19508954D
:10198A00CEDFFD01BC010895E894E7FF02C0E195AE
:10199A006894A7FF04C0A19500F8039400FA08957B
:1019AA00ED91FC9111970895ED91FD916D917C91C6
:1019BA0013970895E881F9816A817B810895E88304
:1019CA00F9836A837B8308957A936A93FA93EA93F5
:1019DA000895182E862F612D192E972F712D1B2EE3
:1019EA00BF2FF12D1A2EAE2FE12D089530976040AA
:1019FA00704008955A934A933A932A931A930A93F2
:101A0A0008955D814C813B812A811981088108955D
:00000001FF
